:020000040000FA
:10000000D008002011030000190300001B030000AA
:100010001D0300001F03000021030000000000007A
:1000200000000000000000000000000023030000AA
:10003000250300000000000027030000E511000078
:100040002B0300002D0300002F03000031030000EC
:1000500033030000DD130000370300003903000004
:100060003B0300003D0300003F030000410300008C
:10007000430300004503000047030000490300005C
:100080004B0300004D0300004F030000510300002C
:1000900053030000550300005703000059030000FC
:1000A0005B0300005D0300005F03000061030000CC
:1000B000630300006503000067030000690300009C
:1000C0006B0300006D0300006F030000710300006C
:1000D000730300007503000077030000790300003C
:1000E0007B0300007D0300007F030000810300000C
:1000F00083030000850300008703000089030000DC
:100100008B0300008D0300008F03000055060000E4
:10011000930300009503000097030000990300007B
:100120009B0300009D0300009F030000A10300004B
:10013000A3030000A5030000A7030000A90300001B
:10014000AB030000AD030000AF030000C9030000D3
:100150000000000000000000CB030000CD03000001
:10016000CF030000D103000000000000D303000013
:10017000D5030000D7030000D9030000DB03000013
:10018000DD030000DF030000E1030000E3030000E3
:10019000E5030000E7030000E9030000EB030000B3
:1001A000ED030000EF030000F1030000F303000083
:1001B000F5030000F7030000F9030000FB03000053
:1001C000FD030000FF030000010400000304000021
:1001D0000504000007040000090400000B040000EF
:1001E0000D0400000F0400001104000013040000BF
:1001F0001504000017040000190400001B0400008F
:1002000000F002F800F05CF80AA090E8000C8244CC
:100210008344AAF10107DA4501D100F051F8AFF2A9
:10022000090EBAE80F0013F0010F18BFFB1A43F0D4
:10023000010318478C5C0000AC5C00000A444FF0DE
:10024000000C10F8013B13F0070408BF10F8014B35
:100250001D1108BF10F8015B641E05D010F8016B7A
:10026000641E01F8016BF9D113F0080F1EBF10F8DE
:10027000014BAD1C0C1B09D16D1E58BF01F801CB01
:10028000FAD505E014F8016B01F8016B6D1EF9D584
:100290009142D6D370470000002300240025002699
:1002A000103A28BF78C1FBD8520728BF30C148BFD9
:1002B0000B6070471FB505F077FA1FBD10B510BD74
:1002C00000F01EF91146FFF7F5FF02F0F9FD00F00E
:1002D0003CF903B4FFF7F2FF03BC00F03FF9000064
:1002E0000138FDD170470000EFF3108072B67047FF
:1002F000EFF310807047EFF3108062B6704730BFA5
:10030000704780F311887047EFF311807047000049
:100310004548804745480047FEE7FEE7FEE7FEE721
:10032000FEE7FEE7FEE7FEE7FEE7FEE7FEE7FEE7A5
:10033000FEE7FEE7FEE7FEE7FEE7FEE7FEE7FEE795
:10034000FEE7FEE7FEE7FEE7FEE7FEE7FEE7FEE785
:10035000FEE7FEE7FEE7FEE7FEE7FEE7FEE7FEE775
:10036000FEE7FEE7FEE7FEE7FEE7FEE7FEE7FEE765
:10037000FEE7FEE7FEE7FEE7FEE7FEE7FEE7FEE755
:10038000FEE7FEE7FEE7FEE7FEE7FEE7FEE7FEE745
:10039000FEE7FEE7FEE7FEE7FEE7FEE7FEE7FEE735
:1003A000FEE7FEE7FEE7FEE7FEE7FEE7FEE7FEE725
:1003B000FEE7FEE7FEE7FEE7FEE7FEE7FEE7FEE715
:1003C000FEE7FEE7FEE7FEE7FEE7FEE7FEE7FEE705
:1003D000FEE7FEE7FEE7FEE7FEE7FEE7FEE7FEE7F5
:1003E000FEE7FEE7FEE7FEE7FEE7FEE7FEE7FEE7E5
:1003F000FEE7FEE7FEE7FEE7FEE7FEE7FEE7FEE7D5
:10040000FEE7FEE7FEE7FEE7FEE7FEE7FEE7FEE7C4
:10041000FEE7FEE7FEE7FEE7FEE7FEE704480549E4
:10042000034A054B70470000BD13000001020000A5
:10043000D0060020D0080020D006002040EA0103AA
:1004400070B59B072ED14FF00136042A2AD308C875
:1004500010C99D1B9D43121F15EAC61517D0D8B2AF
:10046000E1B2401A50EA056110D198B2A1B2401A27
:1004700050EA05410AD123F07F4024F07F41401A21
:1004800050EA052102D1180EA0EB146070BDA34202
:10049000DBD018BA21BA884201D9012070BD4FF0D3
:1004A000FF3070BD0AB9002070BD10F8013B11F893
:1004B000014B63B1A3420AD1521E08D010F8013B90
:1004C00011F8014B1BB1A34201D1521EEDD1181BF3
:1004D00070BD70477047704710B500F009F80068AC
:1004E00010BD10B5044600F003F8046010BD000014
:1004F000004870476C060020004870476C060020DA
:100500007546FFF7F9FFAE4605006946534620F0F1
:100510000700854618B020B5FFF780FFBDE82040F2
:100520004FF000064FF000074FF000084FF0000BAF
:1005300021F00701AC46ACE8C009ACE8C009ACE862
:10054000C009ACE8C0098D46704710B50446AFF34A
:1005500000802046BDE81040FFF7BBBE01491820CF
:10056000ABBEFEE7260002007047002100E0491CF8
:100570008142FCD37047000070B505460C46285DEB
:1005800006490A5C0521222000F00CFA0120A04057
:10059000C2B20621222000F005FA70BD180000202A
:1005A000D0F8003412F0010F14BF0B438B43C0F896
:1005B000003412F0020FD0F8202414BF114322EAB5
:1005C0000101C0F820147047C0F81C147047D0F81F
:1005D00010241143C0F81014704770B50C4600F099
:1005E000ADFF0546214600F031FB2846BDE87040CE
:1005F00000F0DEBA002914BFD0F81804D0F81404B3
:100600007047D0F8083412F0010F14BF0B438B432E
:10061000C0F80834D0F8043412F0020F14BF0B43B2
:100620008B43C0F80434D0F80C3412F0040F14BF1C
:10063000194323EA0101C0F80C14D0F8381512F45C
:10064000803F14BF41F0010121F00101C0F83815CD
:100650007047000070B501212748FFF7CBFF054622
:1006600029462548FFF7B0FF0121234800F00EF985
:1006700028BB00BF0121204800F008F90028F9D06C
:100680001E4800684FF49671484340F6B831B0FBFD
:10069000F1F42046FFF724FE0221174800F0F6F897
:1006A00010B902F0DBFC19E001221146144800F0F9
:1006B00036F91448007818B90120124908700DE085
:1006C00010480078102806DA0E4800784006000E20
:1006D0000C49087002E000200A490870022106480F
:1006E00000F0D4F838B900222021074800F017F9AB
:1006F00000200649087070BD00D00340140000209F
:100700000040064031000020001006403C00002060
:100710002DE9F00301264FF0000C0325C2F3411729
:1007200006FA0CF40C4211D0D0F8C48F4FEA4C04F6
:1007300005FA04F928EA0908C0F8C48FD0F8C48F74
:1007400007FA04F448EA0404C0F8C44F0CF1010CA1
:100750000CF0FF0CBCF1080FE2D3D0F800C512F08A
:10076000010F14BF4CEA010C2CEA010CC0F800C5C3
:10077000D0F804C512F0020F14BF4CEA010C2CEAA9
:10078000010CC0F804C5D0F808C512F0040F14BF5E
:100790004CEA010C2CEA010CC0F808C5D0F818C5C9
:1007A00012F0080F14BF4CEA010C2CEA010CC0F83F
:1007B00018C512F0100FD0F83C2514BF0A438A4325
:1007C000C0F83C25D0F80C2513F0010F14BF0A43E4
:1007D0008A43C0F80C25D0F8102513F0020F14BF7F
:1007E0000A438A43C0F81025D0F8142513F0040FEB
:1007F00014BF0A438A43C0F81425D0F81C2513F00F
:10080000080F14BF0A438A43C0F81C25D0F84425BA
:1008100013F4007F14BF0A438A43C0F84425D0F87C
:10082000402513F4407F14BF0A438A43C0F8402593
:10083000D0F82825002B0CBF114322EA0101C0F893
:100840002815BDE8F00370470E4AC0F30741D26E89
:1008500001238B401A420C4A1ABF02EBC1014968BE
:1008600052F83110020AD1F82C354FF00F0C0CFA67
:1008700002FC00F00F0023EA0C0390401843C1F87B
:100880002C05704700E00F403C5A000050F8210052
:10089000704730B50C4605460022FFF781FE214621
:1008A0002846BDE8304008230122FFF731BF30B5AC
:1008B0000C46054608230122FFF72AFF2146284659
:1008C000BDE830400122FFF76BBE30B50C4605464F
:1008D0000222FFF765FE21462846BDE83040092385
:1008E0000122FFF715BF30B50C4605460222FFF77F
:1008F00057FE21462846BDE8304008230122FFF775
:1009000007BF30B50C4605460222FFF749FE2146D7
:100910002846BDE8304008230122FFF7F9BE40F821
:10092000212070472DE9F04104460E4600BF1C48C7
:1009300000F078F80028FAD100222146184800F08B
:10094000B9F83146164800F077F80721144800F04E
:100950006FF800BF124800F05FF80028FAD1104885
:1009600000F071F8C7B2C820FFF7FFFD0122214651
:100970000B4800F09FF80721094800F059F800BF24
:10098000074800F049F80028FAD1054800F052F86D
:10099000C5B2C820FFF7E9FD2846BDE8F081000098
:1009A000000002402DE9F04104460F46154600BF05
:1009B000184800F037F80028FAD1002221461548DF
:1009C00000F078F83946134800F036F80321114852
:1009D00000F02EF800BF0F4800F024F80028FAD1EC
:1009E0000C4800F030F8C6B229460A4800F024F856
:1009F0000521084800F01CF800BF064800F012F876
:100A00000028FAD1034800F01EF8C6B23046BDE80F
:100A1000F081000000000240406810F0400018BF64
:100A200001207047406810F0010018BF0120704796
:100A3000416070478068704781607047016A41F08B
:100A4000100101627047406810F0010F05D110F0ED
:100A5000120F1CBF00F01C00704700207047000000
:100A6000036A43F010030362002A14BF0E4A0F4AC0
:100A700002EB820301EB830302EB820292005B1E16
:100A8000B3FBF2F2521EC260D0F8C02F12F0010F79
:100A900008BF7047064A1144521CB1FBF2F1491ECF
:100AA00041F08001C1607047801A0600A0860100F5
:100AB0007F47370142EA4101016070477CB500245D
:100AC00038A103C9CDE90001002534E0002201214D
:100AD0001820FFF767FFFF2206212220FFF762FFA1
:100AE000FF2205212220FFF75DFF30480068C82162
:100AF000484340F6B831B0FBF1F63046FFF7F0FB63
:100B0000FF2201211820FFF74DFF0022062122209D
:100B1000FFF748FF002205212220FFF743FF23486B
:100B20000068C821484340F6B831B0FBF1F63046C2
:100B3000FFF7D6FB6D1C022DC8D32EE004F0070191
:100B40006846FFF719FD19480068400040F6B831C3
:100B5000B0FBF1F63046FFF7C3FB02F0B9FA1348D9
:100B6000006841F27071B0FBF1F63046FFF7B8FB58
:100B7000641CC820B4FBF0F100FB114068B902F01E
:100B8000A7FA0A4800684FF44871484340F6B83164
:100B9000B0FBF1F63046FFF7A3FBB4F5C87FCDD329
:100BA0007CBD0000020109010000090014000020C2
:100BB0001649042804BF086840F4803018D005287E
:100BC00004BF086840F4003012D0062812D00F2865
:100BD00015D0102838BF7047103800F01F010122CF
:100BE00002FA01F142090A4850F8220001607047F8
:100BF00008607047086840F48020086070474FF034
:100C0000E020016941F002010161704724ED00E03C
:100C1000885B000010B5FFF76EFB002818BF0120AD
:100C200010BD0000084A20F00303D2581368800763
:100C3000C00E4FF0FF0C0CFA00FC23EA0C0301FA83
:100C400000F0184310607047EC5A000030B40A4DB1
:100C50002A680A4B9A421CBFD5F800C0002207D070
:100C60005CF8224043F82240521C9B2AF8D32B60A8
:100C700043F8201030BC704708ED00E0000400206D
:100C800010B5224800F070FA00BF204800F080FA4A
:100C90000028FAD01D48C01C00F066FA00BF1B48AF
:100CA000C01C00F075FA0028F9D01848C01D00F0EB
:100CB0005BFA00BF1548C01D00F06AFA0028F9D0A1
:100CC0001248001D00F050FA00BF1048001D00F04F
:100CD0005FFA0028F9D00F210D48FFF7E8FD012148
:100CE0000C48FFF7E4FD02210A48FFF7E0FD202150
:100CF0000948FFF7DCFD03210848FFF7CAFD0A2376
:100D0000012203210548FFF703FD10BD050800F08F
:100D100000500240004006400010064000D0034052
:100D200010B5204800F020FA1F4800F01DFA1F48B7
:100D3000FFF78AFD1E48FFF787FD04211D48FFF7D6
:100D4000D2FD08211B48FFF7C0FD01221A480168A7
:100D50001A48FFF785FE1948FFF770FEFF220C21A5
:100D60002220FFF71FFE044600220D212220FFF75C
:100D700019FE044600220E212220FFF713FE04462E
:100D8000002203211820FFF70DFE0446FF22012157
:100D90001820FFF707FE0446002206212220FFF755
:100DA00001FE10BD002000F0010800F00208010063
:100DB000020C01000050004014000020000002401E
:100DC00010B500F0FBF900F000FA00211520FFF744
:100DD00029FF50210C4800F083FB1520FFF7E8FEA7
:100DE000002203210948FFF70CFC09490748FFF7D7
:100DF000F4FB03210548FFF7EAFB4320FFF7D8FE89
:100E0000FFF708FF10BD000000C0004000D0034005
:100E10005506000010B5124800F0A6F9114800F080
:100E2000A3F900BF0F4800F0B3F90028FAD0012061
:100E3000FFF70AFD40F20140FFF706FD03214FF0E6
:100E40004020FFF75EFD60234FF4E1320648016861
:100E5000064800F00CFB06A000F050FB10BD00009F
:100E6000001800F0000800F01400002000C000404E
:100E70000D0A48656C6C6F210D0A00002DE9F00326
:100E8000AF4D02462868AF4B1840A0F18053B3F530
:100E9000A02359D002F03809DFF8AC82C2F38414E1
:100EA000B9F1100F25D0B9F1300F04BF47F230501F
:100EB0004FF400130DD04FF03800904304BF4FF4AF
:100EC0000040C30105D012F0380F1CBF00200346BC
:100ED00013D09E4F12F4605F4FF0000618BF00223F
:100EE0002CD057F8324044457DD307EBC2025268FC
:100EF000E1E0002340461524EBE7A4F109001228A5
:100F000022D29348D5F87CC04FF04C7350F824009F
:100F10002CF01C0C072CA8BF4CF0100CC5F87CC0A2
:100F20002E6D4FF4002C16F4807FD2D1BCF1010C51
:100F30000AD02E6D16F4807FF8D0CAE712F0380F71
:100F400018BFB9F1100F04D0BDE8F0034FF0000056
:100F50007047C2F30268DFF8FCC14FF0000257F897
:100F60003290E14503D307EBC202526803E0521C02
:100F7000062AF4D33246C5F8C020D5F8B020DFF8F1
:100F8000D8C102EA0C0242F00042C5F8B020DFF8F6
:100F9000CCC1A4F109024C1E5CF828C0A444BCFBDF
:100FA000F1FCD5F8B0101943C5F8B01008EBC80132
:100FB00001EB41046A4902EB420201EBC40101EB7F
:100FC00082046468C5F86441D5F864416FF0FF0895
:100FD00008EB0C2C44EA0C0CC5F864C151F8221043
:100FE000D5F8602100E061E002F400021143C5F889
:100FF0006011D5F86011D5F86021C1F38921C2F3E1
:101000000904D5F86421C2F3042202F1010CD5F8D9
:10101000642102F01F02521CB0FBF2F04A09C2F137
:1010200000084443424301EB481104EB5212484389
:1010300002EB9020B0FBFCF041080846002257F874
:1010400032C0844503D307EBC200466802E0521C5D
:10105000062AF4D3C5F8C060D5F8600110F4000F7B
:101060001DBFD5F8B00040F08040C5F8B000D5F8FD
:10107000600104BF40F40000C5F860014FF4004077
:10108000D5F8682112F0010F02D1401E0028F7DCCC
:10109000002808BF002148D0D5F8B000184340F020
:1010A000010040F01040C5F8B0003EE0521C062A96
:1010B000FFF417AF3246C5F8C020D5F8602122F4FE
:1010C0000002C5F86021D5F8B020DFF898C002EA28
:1010D0000C0242F00042C5F8B020002908BF4FF0D2
:1010E000000C0AD0B0FBF1FCBCF1000F18BFACF152
:1010F000010C0CF10101B0FBF1F10846002257F898
:101100003240844203D307EBC200466802E0521C1F
:10111000062AF4D3C5F8C060D5F8B00043EA8C22A3
:10112000104340F00040C5F8B000D5F8B00020F4FE
:101130007000C5F8B000BDE8F00308467047000035
:1011400000E00F400000FF700024F400FC5D000090
:10115000E05B000040787D0100FC0FE0D85B000000
:101160004C5C0000FF0300EFC0F307230749C0B247
:10117000194401F07043C1F3130143EA411141EAFC
:10118000800040F0007001220260704700E60F40CE
:10119000C0F307220849C0B2114401F07042C1F304
:1011A000130142EA411141EA800040F000700068FA
:1011B000002818BF0120704700EA0F404FF0E020E0
:1011C000016941F00501016170474FF0E0200169BC
:1011D00041F00201016170474FF0E021401E48617B
:1011E0007047000010B55748008828B1554800885E
:1011F000401E544908800AE0002201215248FFF7AE
:101200008EFB64204F4908800120504908705048E7
:10121000008828B14E480088401E4D4908800DE0E6
:101220004C48007820B14C48007808B103F0DAF956
:101230000A2047490880012048490870484800882A
:1012400028B147480088401E454908800BE000222D
:1012500002213D48FFF763FB4FF47A704049088054
:1012600001204049087001213F48FFF70FFB30B9CA
:1012700000203A490870354908703A4908703B48DF
:10128000008828B139480088401E3849088004E0A9
:1012900001203649088036490870364800686428BD
:1012A00005D234480068401C3249086048E03148A3
:1012B0000068642844D142F210702E490860012071
:1012C0002D49086000202D49087006222CA12E48C7
:1012D000FFF7B4F818B901202C4908702DE0052259
:1012E0002BA12948FFF7AAF818B90220274908704E
:1012F00023E0072228A12448FFF7A0F818B903200B
:101300002249087019E0072225A11F48FFF796F827
:1013100018B904201D4908700FE0062222A11A48BE
:10132000FFF78CF818B905201849087005E020A0CF
:1013300000F0F2F801201149087013481E490860B6
:1013400010BD0000020000200040064009000020FF
:10135000000000203300002037000020080000209B
:10136000040000200A00002000D0034006000020F6
:101370000B000020A8000020B40100203B0000204A
:10138000434C4F434B2B0000B00000203A0000209C
:10139000444154452B000000414C41524D312B003B
:1013A000414C41524D322B0054494D45522B0000C7
:1013B0004552524F52210000B001002004480068FD
:1013C00040F4700002490860024803490860704711
:1013D00088ED00E00024F4002402002010B5012173
:1013E000114800F081F8044621460F4800F076F8D5
:1013F000022211460D48FFF792FA0AE00A4800F06F
:101400001BF80B490968087009480068401C084926
:101410000860054800F026F80028EFD10449096863
:1014200008700449086010BD00C00040004006403C
:10143000B0010020A8000020816911F0100F0CBF3E
:1014400000684FF0FF307047826912F0200FFBD127
:1014500001607047826912F0200F06BF0160012011
:10146000002070478069012121EA10107047D0F8F0
:1014700018C01CF0080FFAD1D0F82CC02CF0100CBA
:10148000C0F82CC0D0F830C02CF0010C2CF4407CFB
:10149000C0F830C0D0F830C0B1EB021F34BF4CF000
:1014A000200C2CF0200CC0F830C038BF5208C90006
:1014B000B1FBF2F1491C49088A09426201F03F017F
:1014C0008162C36200218161C16A41F01001C16281
:1014D000016B40F201321143016370474164704770
:1014E000826B114381637047002914BF006CC06B8D
:1014F00070478069012121EA5010704710B50446F9
:1015000004E014F8011B0348FFF79EFF2078002831
:10151000F7D110BD00C0004010B5044608E00648F1
:10152000FFF7E7FF20B114F8011B0348FFF792FF14
:1015300020780028F3D110BD00C0004010490F4AA8
:1015400018230968DFF83CC001EA0C01A1F1805CB6
:10155000BCF5202C04BF0C4A1B230021002B0AD908
:1015600052F831C0844503D102EBC1004068704796
:10157000491C9942F4D3002070470000A458000091
:1015800000E00F400000FF706459000003B40198B0
:101590004100009850EAC12018BF04204A0D18BF2E
:1015A00040F0010040F2FF72B2EB515F08BF40F023
:1015B0000200012808BF052002B0704700000000AB
:1015C0002DE9F04D2DED040B2DED0E8B96B0DDE9E0
:1015D0002550279CDDF890A025F0004624F0004817
:1015E000BAF1000F14BF0121002101EB4502FC49B3
:1015F00053184A1093422AD3002814BF0123002312
:1016000003EB44030B44F7498B4220D358EA000113
:101610009FEDF59B76D0DFF8D8B35D4503D1BAF1E5
:10162000000F05D188E0BAF1000F08BF002100D0FB
:10163000012101EB450111F5001F08D8002814BF56
:101640000121002101EB440111F5001F0BD99DED93
:10165000261B9DED240B16B0BDEC0E8B04B0BDE82F
:10166000F04D00F069BE0027002DBCBFE149884560
:1016700021DAE1498845A8BF02271CDAC3451ADCF4
:10168000DE4901EB2851142908DDC1F1340220FAAA
:1016900002F101FA02F282420DD108E058B9C1F11B
:1016A000140228FA02F101FA02F2424503D101F0D4
:1016B0000101C1F1020756EA0A0124D1002C22DA05
:1016C000002D18BF022F01D0012F0AD00220FEF7F3
:1016D00008FF16B0BDEC0E8B04B0BDE8F04D00F075
:1016E00013BE0220FEF7FDFE00F00EFE51EC100BC3
:1016F00003F0B0FA41EC100B16B0BDEC0E8B04B049
:10170000BDE8F08D18E09FEDBEAB9FEDBF8B0028CC
:1017100071D1B848804522D105F1804010F5801084
:1017200008BFBAF1000F07D0B3450ADC002CA8BFF0
:101730009DED260BE0DA0DE0B0EE490AF0EE690A05
:10174000DAE7002C06DA9DED260B51EC100B03F0C6
:1017500081FA6FE0AE48784490ED000BCCE7D845B5
:101760004DD1002C48DA2EB186423AD1BAF1000FA1
:1017700042D126E0BAF1000F13D00220FEF7B1FEED
:1017800000F0F6FD8DED020B9DED240B8DED000BB1
:1017900010EE900A039961F31E0003909DED020B79
:1017A000AAE78DED02AB9DED240B1AEE901A10EE18
:1017B000900A8DED000B61F31E0003909DED020B6E
:1017C0009AE78DED028B9DED240B18EE901A10EE2A
:1017D000900A8DED000B61F31E0003909DED020B4E
:1017E0008AE709DA9DED240B51EC190B53EC102B11
:1017F00003F0F8FA1EE020E09DED240B7CE7864222
:101800001BDAB4F1804F0DD0A4F10050B0F1FF50BD
:1018100013D1002D11DB9DED240B51EC100B02F0C8
:10182000A9FE07E09DED240B53EC102B51EC100B9F
:1018300000F0C2BC41EC100B5EE79DED240B51ECB7
:10184000100B01F01BFBBAF1000FCDE90E0142D1E4
:101850009FED710B46B3A6F1E040B0F17F600CD074
:101860005E4538D1002D00DAA7B3022F0CBF01204E
:101870004FF0FF3003F03BFCDCE7002D01DD002CD6
:101880000DDA002D01DD002C1FDB002D16DA002CF7
:1018900014DB012F08BF9FED620B3FF42DAFB0EEBC
:1018A0004A0AF0EE6A0A27E7022F18BF002D0CD073
:1018B000012F0AD1002DFFF61FAF06E0002DB8BFA3
:1018C000002C08DA012F3FF417AFB0EE480AF0EE13
:1018D000680A11E71BE0012000EBE57050EA070100
:1018E00015D0791EB0EE498AF0EE698A084308BF28
:1018F0009FED4D8B4E480025804570DD4D494E488B
:10190000884514DDB0420DDB002C19DB2FE00120EF
:10191000FEF7E7FD16B0BDEC0E8B04B0BDE8F04D50
:1019200000F016BDB34502DC002C09DC1FE0864246
:1019300002DA002C1BDA03E05E452BDD002C16DDFD
:101940000220FEF7CEFD00F013FD8DED020B53ECEF
:101950001A2B51EC180B03F031FCCDE9000103996F
:10196000019861F31E0003909DED020BC4E6022076
:10197000FEF7B7FD00F00CFD10EE901A18EE900A7D
:101980008DED020B8DED008B61F31E0003909DED3C
:10199000020BB1E69DED0E0B53EC192B51EC100B25
:1019A00003F018FE9FED260BCDE9080153EC102B38
:1019B0009DED080B51EC100B03F000FC9FED221B7A
:1019C00053EC112B03F02EFD9DED081B53EC112B56
:1019D00003F0F4FB9FED1E1B53EC112B3CE08CE05D
:1019E000FFFF1F00FFFF0F00000000000000F03F9E
:1019F0000000F03F0000F07F0000404301FCFFFFCB
:101A0000000000000000F07F000000000000000067
:101A10005E470000000000000000000000000080A1
:101A2000000000000000F0FF000000000000F0BF18
:101A30000000E0410000F043FFFFEF3F0000000026
:101A4000000000000000D03F555555555555D53F75
:101A5000000000000000E03F03F0E4FC9DED080BF7
:101A600041EC1A0B53EC102B51EC100B03F0A6FBBE
:101A700053EC1A2B03F0A2FB41EC1A0B9FEDFE0B6B
:101A800053EC102B9DED080B51EC100B03F096FB63
:101A900041EC1B0B9FEDFA0B51EC1A0B53EC102B86
:101AA00003F08CFB41EC1A0B9FEDF70B53EC102B62
:101AB0009DED080B51EC100B03F080FB53EC1A2B3F
:101AC00003F088FD41EC1A0B51EC1B0B53EC1A2B65
:101AD00003F0CCF80690CDE906519DED060B53ECD2
:101AE0001B2B51EC100B03F075FD53EC1A2B03F07C
:101AF00099FC41EC100B00F0A1B90020B6F5801F55
:101B00000EDA9FEDE30B53EC102B9DED0E0B51EC19
:101B1000100B03F053FBCDE90E016FF034000E46BD
:101B200000EB2650A0F2FF37C6F31300DA4940F06D
:101B30007F6646F040568842D8BF002408DDD7496A
:101B40008142C8BF012403DC0024A6F580167F1C57
:101B5000D348784400EBC4000F9690ED00CB9DED88
:101B60000E0B53EC1C2B51EC100B03F033FD9DEDD1
:101B70000E0B41EC1B0B53EC1C2B51EC100B03F028
:101B800075F841EC100B51EC190B53EC102B03F0D2
:101B900029F941EC1D0B51EC1B0B53EC1D2B03F0F1
:101BA0000DFB41EC1A0BBF488DED10AB784410953E
:101BB00090ED000B4FF0005040EA660000EB8440CF
:101BC0008DED080B00F5002009909DED080B53ECFE
:101BD0001C2B51EC100B03F0FDFC9DED0E1B53EC88
:101BE000112B03F01FFC41EC100B53EC102B9DED5F
:101BF000100B51EC100B03F0E1FA9DED080B41ECDA
:101C00001C0B53EC102B9DED100B51EC100B03F043
:101C1000D5FA53EC1B2B03F005FC53EC1C2B03F003
:101C2000D9FC53EC1D2B03F0C9FA41EC1C0B53EC0F
:101C30001A2B51EC1A0B03F0C1FA41EC1B0B9A481A
:101C40000621B0EE4B0AF0EE6B0A784400F0E0FAA1
:101C5000B0EE401AF0EE601AB0EE41DAF0EE61DA62
:101C600053EC1B2B51EC1B0B03F0A8FA53EC1D2B70
:101C700003F0A4FA9DED100B41EC1B0B53EC1A2B57
:101C800051EC100B02F0F2FF53EC1C2B03F096FA10
:101C900053EC1B2B02F0EAFF9DED100B41EC1B0BEC
:101CA00053EC102B51EC100B03F088FA41EC1D0B98
:101CB0009FED7FEB53EC1E2B02F0D8FF53EC1B2B58
:101CC00002F0D4FF0890CDE908519DED080B53ECCC
:101CD0001E2B51EC100B03F07DFC53EC1D2B03F07D
:101CE00079FC53EC1B2B03F09DFB9DED080B41ECA5
:101CF0001D0B53EC102B9DED100B51EC100B03F052
:101D00005DFA41EC1B0B53EC1A2B51EC1D0B03F04D
:101D100055FA9DED080B41EC1A0B53EC102B51ECCE
:101D20001C0B03F04BFA53EC1A2B02F09FFF41EC13
:101D30001A0B51EC1B0B53EC1A2B02F097FF0C9073
:101D4000CDE90C519DED0C0B53EC1B2B51EC100B02
:101D500003F040FC53EC1A2B03F064FB41EC1B0B2B
:101D60009FED550B53EC102B9DED0C0B51EC100B14
:101D700003F024FA41EC1A0B9FED510B51EC1B0BB5
:101D800053EC102B03F01AFA41EC1B0B9FED4E0B9A
:101D900053EC102B9DED0C0B51EC100B03F00EFAD5
:101DA00053EC1B2B02F062FF41EC100B48487844C7
:101DB00000EBC40090ED001B51EC100B53EC112B09
:101DC00002F054FF41EC1B0B384603F090F9CDE9CB
:101DD000080153EC1B2B51EC1A0B02F047FF41ECAE
:101DE000100B3C48784400EBC40090ED00CB51EC64
:101DF000100B53EC1C2B02F039FF9DED081B53EC2C
:101E0000112B02F033FF0690CDE906519DED080B32
:101E100053EC102B9DED060B51EC100B03F0DAFB8D
:101E200053EC1C2B03F0D6FB53EC1A2B03F0D2FB24
:101E300053EC1B2B03F0F6FA41EC100B9DED261B27
:101E400053EC102B8DED001B00959DED260B51ECF6
:101E5000100B03F0B3F99DED000B41EC1A0B53ECA2
:101E6000102B9DED260B51EC100B03F0B3FB9DEDF9
:101E7000061B53EC112B2FE0000000604715F73FC5
:101E8000FE822B654715F73F44DF5DF80BAE543EED
:101E900000000000000040438E9803007AB60B005B
:101EA000DA42000008430000124200000000000077
:101EB0000000000000000840000000E009C7EE3FFD
:101EC000FD033ADC09C7EE3FF5015B14E02F3EBE8F
:101ED0009E4000005840000003F070F953EC1A2BAC
:101EE00002F0C4FE9DED060B41EC1A0B53EC102BD7
:101EF0009DED000B51EC100B03F060F9CDE90C01E6
:101F00009DED0C0B51EC1A0B53EC102B02F0AEFEB6
:101F1000CDE902010C46AA498C422FDB611A084325
:101F200018D19DED0C0B53EC102B9DED020B51ECD9
:101F3000100B03F04FFB41EC1B0B9FEDA30B51EC7F
:101F40001A0B53EC102B02F091FE53EC1B2B03F0F9
:101F500033FA2DD20220FEF7C4FA00F009FA10EE8F
:101F6000901A18EE900A8DED020B8DED008B61F347
:101F70001E0003909DED020BFFF7BEBB944A24F0B8
:101F80000041914214D39349214408437FF4EFACBC
:101F90009DED0C0B53EC102B9DED020B51EC100B37
:101FA00003F018FB53EC1A2B03F006FA7FF6DFACB4
:101FB00024F000408849894A002601EB20518242E2
:101FC0002BDA481C4FF4801121FA00F02044844A97
:101FD000C0F30A517A44A1F2FF3192ED000B814A1D
:101FE0008DED080BCA4020EA0202C0F3130040F452
:101FF0008010C1F1140120FA01F60992002CB8BF3B
:1020000076429DED080B53EC102B9DED0C0B51EC23
:10201000100B03F0DFFACDE90C019DED0C0B51EC38
:102020001A0B53EC102B02F021FE9FED6F0B089062
:10203000CDE9085153EC102B9DED080B51EC100B22
:1020400003F0BCF841EC1B0B9FED690B53EC102B1C
:102050009DED080B51EC100B03F0B0F89DED0C0B4F
:1020600041EC1C0B53EC102B9DED080B51EC100BAD
:1020700003F0B0FA53EC1A2B03F0D4F99FED5E1B7A
:1020800053EC112B03F09AF853EC1C2B02F0EEFDED
:1020900041EC1A0B51EC1B0B53EC1A2B02F0E6FD32
:1020A000CDE902019DED020B53EC1B2B51EC100B03
:1020B00003F090FA53EC1A2B03F0B4F99DED020BE8
:1020C00041EC1A0B53EC102B51EC100B03F076F88B
:1020D000CDE908014A489DED080B0521784400F040
:1020E00097F89DED081B51EC100B53EC112B03F0EE
:1020F00065F89DED021B53EC112B03F093F9CDE92C
:1021000006019DED020B53EC1A2B51EC100B03F062
:1021100055F853EC1A2B02F0A9FD9FED3B0B41EC57
:102120001A0B53EC102B9DED060B51EC100B03F02A
:1021300051FA9DED060B41EC1B0B53EC102B9DED62
:10214000020B51EC100B03F039F853EC1B2B02F08F
:1021500049FE53EC1A2B03F03DFA9DED021B53ECA4
:10216000112B03F037FA53EC192B03F05BF9CDE98F
:10217000020101EB065001150029C8BF039015DCD0
:102180009DED020B324651EC100B03F044FBFFF7C0
:10219000FDF9042808BF00F0FBF832469DED020B64
:1021A00051EC100B03F037FBCDE902019DED020B62
:1021B00051EC180B53EC102B03F000F8FFF73ABB6F
:1021C0000000904000000000FE822B654715973C00
:1021D00000CC904000346F3F01FCFFFF0000E03F67
:1021E000E03E0000FFFF0F0000000000432EE63F2E
:1021F000396CA80C615C20BEEF39FAFE422EE63F36
:10220000B03D0000000000000000000000000040A1
:1022100070B504462DED028B4D1E00EBC500B0EEEF
:10222000408AF0EE608A90ED000B35F0060017D082
:1022300053EC182B51EC100B02F0C0FF41EC100BCB
:102240006D1E04EBC50090ED001B51EC100B53EC20
:10225000112B02F00BFD41EC100B35F00600E7D11D
:10226000022D36D0042D1CD0062D1CBFBDEC028BD8
:1022700070BD53EC182B51EC100B02F09FFF94ED46
:102280000A1B53EC112B02F0F1FC53EC182B02F05B
:1022900095FF94ED081B53EC112B02F0E7FC41EC89
:1022A000100B53EC182B51EC100B02F087FF94ED40
:1022B000061B53EC112B02F0D9FC53EC182B02F047
:1022C0007DFF94ED040B53EC102B02F0CFFC41EC9E
:1022D000100B53EC182B51EC100B02F06FFF94ED28
:1022E000021B53EC112B02F0C1FC53EC182B02F033
:1022F00065FF94ED001B53EC112B02F0B7FCBDEC15
:10230000028B41EC100B70BD9FED070B10B553EC29
:10231000102B9FED070B51EC100B02F063FD41EC0D
:10232000100B10BD000000000000000000000000C5
:10233000000000000000F03F10B553EC112B51ECF1
:10234000100B02F093FC41EC100B10BD00000000DC
:102350009FED050B10B553EC102B51EC100B02F058
:1023600041FD41EC100B10BD00000000000000001A
:102370009FED050B10B553EC102B51EC100B02F038
:102380001DFF41EC100B10BD0000000000000070AC
:102390009FED050B10B553EC102B51EC100B02F018
:1023A0000DFF41EC100B10BD0000000000000010FC
:1023B0007CB5002401207249087000207149087022
:1023C000714800680A21B0FBF1F0C0B28DF800003E
:1023D0006D480068B0FBF1F201FB12008DF80100BE
:1023E0006A480068B0FBF1F0C0B28DF8030067489E
:1023F0000068B0FBF1F201FB12008DF804006448A4
:102400000068B0FBF1F0C0B28DF8060060480068CB
:10241000B0FBF1F201FB12008DF8070000BF1FE0D6
:10242000022C01D0052C00D119E0E1B26846FEF77C
:10243000A3F858480068400040F6B831B0FBF1F509
:102440002846FDF74DFF00F043FE5248006841F278
:102450007071B0FBF1F52846FDF742FF00BF641C28
:10246000082CDDD34C480078FF287FD100212220A2
:10247000FEF758FA4849087008460078C0434749B3
:10248000087008460078082835D006DC01280BD0F3
:10249000022816D0042867D120E0202839D040280F
:1024A00045D0802860D151E03748006828B13648CF
:1024B0000068401E3449086002E017203249086075
:1024C00053E03248006828B130480068401E2F4968
:1024D000086002E03B202D49086046E02C48006877
:1024E00028B12B480068401E2949086002E03B20C3
:1024F0002749086039E02A48007818B100202849A7
:10250000087002E001202649087001202549087062
:102510002BE01F4800683B2805D21D480068401C7E
:102520001B49086002E00020194908601DE01748B7
:1025300000683B2805D215480068401C1349086014
:1025400002E00020114908600FE00FE00E4800682B
:10255000172805D20C480068401C0B49086002E0AF
:1025600000200949086000E000BF07E000212220A8
:10257000FEF7D8F9FF2801D1074908707CBD00009B
:102580003300002032000020F4010020F801002078
:10259000FC0100201400002036000020350000203F
:1025A000380000203C0000207CB500240120724946
:1025B0000870002071490870714800680A21B0FB5A
:1025C000F1F0C0B28DF800006D480068B0FBF1F288
:1025D00001FB12008DF801006A480068B0FBF1F0C1
:1025E000C0B28DF8030067480068B0FBF1F201FB50
:1025F00012008DF8040064480068B0FBF1F0C0B22E
:102600008DF8060060480068B0FBF1F201FB120093
:102610008DF8070000BF1FE0022C01D0052C00D16F
:1026200019E0E1B26846FDF7A7FF5848006840008E
:1026300040F6B831B0FBF1F52846FDF751FE00F049
:1026400047FD5248006841F27071B0FBF1F5284631
:10265000FDF746FE00BF641C082CDDD34C48007813
:10266000FF287FD100212220FEF75CF9484908703D
:1026700008460078C0434749087008460078082893
:1026800035D006DC01280BD0022816D0042867D1EB
:1026900020E0202839D0402845D0802860D151E062
:1026A0003748006828B136480068401E3449086041
:1026B00002E017203249086053E03248006828B130
:1026C00030480068401E2F49086002E03B202D4939
:1026D000086046E02C48006828B12B480068401E7E
:1026E0002949086002E03B202749086039E02A4870
:1026F000007818B100202849087002E0012026491E
:1027000008700120254908702BE01F4800683B280D
:1027100005D21D480068401C1B49086002E00020EB
:10272000194908601DE0174800683B2805D2154884
:102730000068401C1349086002E00020114908604D
:102740000FE00FE00E480068172805D20C4800681B
:10275000401C0B49086002E000200949086000E0C5
:1027600000BF07E000212220FEF7DCF8FF2801D19E
:10277000074908707CBD00003300002032000020B3
:1027800000020020040200200802002014000020A3
:102790003600002035000020390000203C000020D9
:1027A00010B522480078F0B1214800682149096835
:1027B000884218D12048006820490968884212D10F
:1027C0001F4800681F49096888420CD11E480078DC
:1027D00048B1202211461D48FEF7A1F803201C49EC
:1027E000086000F03FF81B480078F0B1104800681E
:1027F00019490968884218D10F48006817490968C3
:10280000884212D10E4800681549096888420CD1E7
:102810000D48007848B1202211460C48FEF77FF899
:1028200003200B49086000F01DF810BD380000209F
:10283000C4010020F4010020C0010020F8010020A4
:10284000BC010020FC0100203C00002000100640DC
:10285000AC0000203900002000020020040200200B
:102860000802002070B5002420E000220121182079
:10287000FEF798F80F4800689621484340F6B831B3
:10288000B0FBF1F52846FDF72BFDFF2201211820B2
:10289000FEF788F8074800689621484340F6B831AB
:1028A000B0FBF1F52846FDF71BFD641C052CDCDBB5
:1028B00070BD000014000020154800683C2825D198
:1028C000144800683B2819D11348006817280AD11A
:1028D00000200F4908600F4908600F490860012077
:1028E0000E49087012E00020094908600949086093
:1028F00009480068401C0849086007E0054800686E
:10290000401C04490860002001490860704700002D
:10291000BC010020C0010020C401002034000020C0
:102920007CB50024834800680A21B0FBF1F0C0B2F6
:102930008DF800007F480068B0FBF1F201FB120047
:102940008DF801007C480068B0FBF1F0C0B28DF852
:10295000030079480068B0FBF1F201FB12008DF82A
:10296000040076480068B0FBF1F0C0B28DF80600B4
:1029700072480068B0FBF1F201FB12008DF807000D
:102980006F48006878B300BF2BE0022C01D0052C03
:1029900000D125E0E1B26846FDF7EEFD6848006829
:1029A000C0F104000421B1FBF0F066490968484316
:1029B00041F27071B0FBF1F52846FDF791FC00F093
:1029C00087FB5F480068C0F104005E49096848431E
:1029D00041F27071B0FBF1F52846FDF781FC00BFB4
:1029E000641C082CD1D358480078FF2874D10021EA
:1029F0002220FDF797FF5449087008460078C0432D
:102A0000524908700846007810284FD008DC012889
:102A10000DD0022818D0042823D008287ED12DE01C
:102A200020284FD040285CD0802877D168E04148EA
:102A3000006828B13F480068401E3E49086002E037
:102A400017203C4908606AE03B48006828B13A48D2
:102A50000068401E3849086002E03B2036490860A3
:102A60005DE03648006828B134480068401E3349AC
:102A7000086002E03B203149086050E02D480068C2
:102A8000082806D22E48006818B100202C4908609A
:102A90000BE02B48006828B129480068401E2849EF
:102AA000086002E003202649086038E028480078E2
:102AB000012803D100202649087002E001202449A2
:102AC00008702CE01D4800683B2806D21B480068AF
:102AD000401C1A49086003E022E000201749086002
:102AE0001DE0154800683B2805D213480068401CCB
:102AF0001149086002E000200F4908600FE00DE076
:102B00000C480068172805D20A480068401C09498B
:102B1000086002E000200749086000E000BF07E00D
:102B200000212220FDF7FEFEFF2801D10649087092
:102B30007CBD0000C4010020C0010020BC010020B9
:102B4000AC000020140000203600002035000020DA
:102B50003D00002000B52E480078002856D0002007
:102B60002B4908702B48006800F094F938BB2A48BC
:102B70000068401E294951F8200029490968884207
:102B800005D927480068401C254908603EE02248D6
:102B900000680C280AD11F480068401C1D490860C5
:102BA00001201D4908601E4908602FE001201C49D2
:102BB000086019480068401C1749086026E016485C
:102BC0000068401E174951F82000154909688842DD
:102BD00005D913480068401C1149086016E00E48EA
:102BE00000680C280AD10B480068401C094908609D
:102BF0000120094908600A49086007E001200849E6
:102C0000086005480068401C0349086000BD0000DA
:102C100034000020D0010020CC010020480000201A
:102C2000C8010020780000207CB5002400208949DC
:102C30000870012088490870884800684FF47A714C
:102C4000B0FBF1F0C0B28DF8000084480068642148
:102C5000B0FBF1F00A21B0FBF1F201FB12008DF89C
:102C600001007E480068B0FBF1F0B0FBF1F201FB1F
:102C700012008DF8020079480068B0FBF1F201FB08
:102C800012008DF8030076480068B0FBF1F0C0B286
:102C90008DF8040072480068B0FBF1F201FB1200ED
:102CA0008DF805006F480068B0FBF1F0C0B28DF8F8
:102CB00006006C480068B0FBF1F201FB12008DF8D1
:102CC000070000BF19E0E1B26846FDF755FC664811
:102CD0000068400040F6B831B0FBF1F52846FDF73A
:102CE000FFFA00F0F5F96048006841F27071B0FB3E
:102CF000F1F52846FDF7F4FA641C082CE3D35B4891
:102D00000078FF2875D100212220FDF70BFE5749DE
:102D1000087008460078C043554908700846007896
:102D200020284AD006DC012809D0022816D0042821
:102D300072D121E0402861D080287FD16DE04748E2
:102D40000068012805D945480068401E43490860CD
:102D500003E040F2B2704149086070E0404800680A
:102D6000012805D93E480068401E3D49086002E040
:102D70000C203B49086062E03A480068012805D908
:102D800038480068401E3749086015E0334800683D
:102D900000F080F840B132480068401E354951F8D3
:102DA00020003049086007E02D480068401E324985
:102DB00051F820002B49086041E02848006800F0E5
:102DC00069F828490968884206D925480068401EE4
:102DD000284951F8200005E021480068401E264996
:102DE00051F8200030B11F480068401C1D490860A0
:102DF00003E025E001201B49086020E01848006836
:102E00000C2805D216480068401C1549086002E0ED
:102E100001201349086012E010E01048006842F2F7
:102E20000F71884205D20D480068401C0B490860AC
:102E300003E040F2B2700949086000E000BF07E01B
:102E400000212220FDF76EFDFF2801D107490870FF
:102E50007CBD00003200002033000020D0010020A3
:102E6000CC010020C8010020140000203600002002
:102E700035000020780000204800002082B0CDE915
:102E8000000121F0004001909DED000B02B051ECDB
:102E9000100B7047014601F003022AB96422B1FB0E
:102EA000F2F302FB131232B94FF4C872B1FBF2F322
:102EB00002FB13120AB9012200E0002210467047FB
:102EC00058495948FDF7DAFF584908600846006834
:102ED0004FF47A71B0FBF1F52846FEF77DF9FDF766
:102EE000CFFEFDF71DFFFDF795FFFDF769FFFDF72D
:102EF000E5FD96E001F0BEFC4D48007880B14D48FC
:102F0000007868B900204A4908704B480068401CA6
:102F100049490860FFF7D0FCFFF71CFEFFF740FCB3
:102F20004648007820B3002044490870444800789F
:102F300001281DD1002419E000204249087010E04A
:102F4000414840490978425C0F214048FDF7E7FCC1
:102F50004FF47A60FDF709FB3A480078401C394984
:102F60000870384800780828EADB641C082CE3DB8A
:102F70003748007840B137480078C0434038C2B283
:102F800001211820FDF70EFD3348007840B131488B
:102F90000078C0438038C2B201211820FDF702FD3D
:102FA0002B48007858B12C48007840B12948007867
:102FB000C043C038C2B201211820FDF7F3FC2448F9
:102FC000007850B92448007838B922480078C043C6
:102FD000C2B201211820FDF7E5FC1E480078042844
:102FE00014D005DC48B101280AD0022817D10AE024
:102FF00008280ED0102812D10EE0FFF791FC0FE048
:1030000000F072F80CE0FFF70FFE09E0FFF7D0F9CF
:1030100006E0FFF7C9FA03E001F01EFB00E000BF85
:1030200000BF67E7002D3101500500F114000020BA
:103030000A00002032000020BC0100200B0000200C
:103040003D000020460000203E00002000500240CD
:1030500038000020310000203900002010B500F0B9
:1030600037F80020104908601049086010490860CE
:10307000104908601049086010490860104908604C
:103080001049086010490860FDF718FD0F480068F6
:103090004FF47A71484340F6B831B0FBF1F4204662
:1030A000FDF71EF910BD0000F4010020F80100201A
:1030B000FC01002000020020040200200802002081
:1030C0000C02002010020020140200201400002036
:1030D00010B5002205212220FDF764FC0022062104
:1030E0002220FDF75FFC10BD08B50020FE490870E6
:1030F0000120FE490870FE480068022866D1FD489C
:103100000068032862D1FC484079024605210090FE
:103110002220FDF747FC012206212220FDF742FC78
:10312000F6480068400040F6B831B0FBF1F000907E
:10313000FDF7D6F8FFF7CCFFF048006841F2707158
:10314000B0FBF1F00090FDF7CBF8732205212220AF
:10315000FDF728FC022206212220FDF723FCE74888
:103160000068400040F6B831B0FBF1F00090FDF788
:10317000B7F8FFF7ADFFE148006841F27071B0FBAE
:10318000F1F00090FDF7ACF8DB48407802460521ED
:1031900000902220FDF706FC042206212220FDF7E4
:1031A00001FCD6480068400040F6B831B0FBF1F0B1
:1031B0000090FDF795F8FFF78BFFD048006841F2CB
:1031C0007071B0FBF1F00090FDF78AF8C848006814
:1031D000022866D1C7480068122862D1C6484079E3
:1031E0000246052100902220FDF7DCFB012206218A
:1031F0002220FDF7D7FBC1480068400040F6B831F7
:10320000B0FBF1F00090FDF76BF8FFF761FFBB48F2
:10321000006841F27071B0FBF1F00090FDF760F8CA
:10322000732205212220FDF7BDFB02220621222068
:10323000FDF7B8FBB1480068400040F6B831B0FB7C
:10324000F1F00090FDF74CF8FFF742FFAB48006843
:1032500041F27071B0FBF1F00090FDF741F8A64823
:1032600080780246052100902220FDF79BFB042276
:1032700006212220FDF796FBA0480068400040F69A
:10328000B831B0FBF1F00090FDF72AF8FFF720FF0E
:103290009A48006841F27071B0FBF1F00090FDF7C0
:1032A0001FF893480068032866D1924800680528F3
:1032B00062D1914840790246052100902220FDF715
:1032C00071FB012206212220FDF76CFB8B48006870
:1032D000400040F6B831B0FBF1F00090FDF700F887
:1032E000FFF7F6FE8548006841F27071B0FBF1F01F
:1032F0000090FCF7F5FF732205212220FDF752FB19
:10330000022206212220FDF74DFB7C480068400088
:1033100040F6B831B0FBF1F00090FCF7E1FFFFF7A9
:10332000D7FE7648006841F27071B0FBF1F0009072
:10333000FCF7D6FF7048C078024605210090222095
:10334000FDF730FB042206212220FDF72BFB6B4802
:103350000068400040F6B831B0FBF1F00090FCF797
:10336000BFFFFFF7B5FE6548006841F27071B0FB22
:10337000F1F00090FCF7B4FF5D480068032866D1C7
:103380005C480068142862D15B48407902460521F8
:1033900000902220FDF706FB012206212220FDF7E6
:1033A00001FB56480068400040F6B831B0FBF1F030
:1033B0000090FCF795FFFFF78BFE5048006841F244
:1033C0007071B0FBF1F00090FCF78AFF73220521C9
:1033D0002220FDF7E7FA022206212220FDF7E2FA79
:1033E00046480068400040F6B831B0FBF1F000906C
:1033F000FCF776FFFFF76CFE4048006841F2707101
:10340000B0FBF1F00090FCF76BFF3B4800790246FF
:10341000052100902220FDF7C5FA04220621222072
:10342000FDF7C0FA35480068400040F6B831B0FBFF
:10343000F1F00090FCF754FFFFF74AFE2F480068B8
:1034400041F27071B0FBF1F00090FCF749FF2848A1
:103450000068042873D12748006804286FD12648E3
:1034600040790246052100902220FDF79BFA0122B7
:1034700006212220FDF796FA20480068400040F619
:10348000B831B0FBF1F00090FCF72AFFFFF720FE07
:103490001A48006841F27071B0FBF1F00090FCF73F
:1034A0001FFF732205212220FDF77CFA022206214C
:1034B0002220FDF777FA11480068400040F6B83145
:1034C000B0FBF1F00090FCF70BFFFFF701FE0B489B
:1034D000006841F27071B0FBF1F00090FCF700FF62
:1034E0000548407902460BE03200002033000020FE
:1034F000CC010020C801002018000020140000208A
:10350000052100902220FDF74DFA042206212220F9
:10351000FDF748FAFE480068400040F6B831B0FBBD
:10352000F1F00090FCF7DCFEFFF7D2FDF8480068F0
:1035300041F27071B0FBF1F00090FCF7D1FEF5485C
:103540000068042866D1F4480068142862D1F34862
:1035500040790246052100902220FDF723FA01223E
:1035600006212220FDF71EFAE9480068400040F6D7
:10357000B831B0FBF1F00090FCF7B2FEFFF7A8FD08
:10358000E348006841F27071B0FBF1F00090FCF785
:10359000A7FE732205212220FDF704FA022206214C
:1035A0002220FDF7FFF9DA480068400040F6B83104
:1035B000B0FBF1F00090FCF793FEFFF789FDD448D3
:1035C000006841F27071B0FBF1F00090FCF788FEEA
:1035D000D24880790246052100902220FDF7E2F9C9
:1035E000042206212220FDF7DDF9C94800684000C9
:1035F00040F6B831B0FBF1F00090FCF771FEFFF738
:1036000067FDC348006841F27071B0FBF1F00090B3
:10361000FCF766FEBF480068052866D1BE48006812
:10362000052862D1BD48407902460521009022203C
:10363000FDF7B8F9012206212220FDF7B3F9B448BD
:103640000068400040F6B831B0FBF1F00090FCF7A4
:1036500047FEFFF73DFDAE48006841F27071B0FBD8
:10366000F1F00090FCF73CFE3E2205212220FDF700
:1036700099F9022206212220FDF794F9A448006856
:10368000400040F6B831B0FBF1F00090FCF728FEA6
:10369000FFF71EFD9E48006841F27071B0FBF1F02B
:1036A0000090FCF71DFE9D484078024605210090E1
:1036B0002220FDF777F9042206212220FDF772F976
:1036C00093480068400040F6B831B0FBF1F000903C
:1036D000FCF706FEFFF7FCFC8D48006841F27071B4
:1036E000B0FBF1F00090FCF7FBFD8A48006805286C
:1036F00066D189480068152862D188484079024619
:10370000052100902220FDF74DF9012206212220FB
:10371000FDF748F97E480068400040F6B831B0FB3C
:10372000F1F00090FCF7DCFDFFF7D2FC7848006870
:1037300041F27071B0FBF1F00090FCF7D1FD3E2238
:1037400005212220FDF72EF9022206212220FDF775
:1037500029F96F480068400040F6B831B0FBF1F03D
:103760000090FCF7BDFDFFF7B3FC6948006841F22B
:103770007071B0FBF1F00090FCF7B2FD6748807803
:103780000246052100902220FDF70CF904220621B3
:103790002220FDF707F95E480068400040F6B83186
:1037A000B0FBF1F00090FCF79BFDFFF791FC58484F
:1037B000006841F27071B0FBF1F00090FCF790FDF1
:1037C00054480068062866D153480068052862D12D
:1037D000524840790246052100902220FDF7E2F888
:1037E000012206212220FDF7DDF84948006840004B
:1037F00040F6B831B0FBF1F00090FCF771FDFFF737
:1038000067FC4348006841F27071B0FBF1F0009032
:10381000FCF766FD3E2205212220FDF7C3F80222B7
:1038200006212220FDF7BEF839480068400040F626
:10383000B831B0FBF1F00090FCF752FDFFF748FC07
:103840003348006841F27071B0FBF1F00090FCF772
:1038500047FD3248C0780246052100902220FDF73E
:10386000A1F8042206212220FDF79CF828480068D0
:10387000400040F6B831B0FBF1F00090FCF730FDAD
:10388000FFF726FC2248006841F27071B0FBF1F0AE
:103890000090FCF725FD1F48006806286FD11E48E0
:1038A000006815286BD11D4840790246052100901B
:1038B0002220FDF777F8012206212220FDF772F879
:1038C00013480068400040F6B831B0FBF1F00090BA
:1038D000FCF706FDFFF7FCFB0D48006841F2707134
:1038E000B0FBF1F00090FCF7FBFC3E22052122200A
:1038F000FDF758F8022206212220FDF753F804486C
:103900000068400040F6B831B0FBF1F0009007E0ED
:1039100014000020CC010020C80100201800002065
:10392000FCF7DEFCFFF7D4FBFE48006841F2707143
:10393000B0FBF1F00090FCF7D3FCFB4800790246A5
:10394000052100902220FDF72DF8042206212220D7
:10395000FDF728F8F3480068400040F6B831B0FBA6
:10396000F1F00090FCF7BCFCFFF7B2FBED480068FB
:1039700041F27071B0FBF1F00090FCF7B1FCEB4844
:103980000068072866D1EA480068072862D1E6483F
:1039900040790246052100902220FDF703F801221C
:1039A00006212220FCF7FEFFDE480068400040F6BA
:1039B000B831B0FBF1F00090FCF792FCFFF788FB08
:1039C000D848006841F27071B0FBF1F00090FCF74C
:1039D00087FC3E2205212220FCF7E4FF022206217B
:1039E0002220FCF7DFFFCF480068400040F6B831E6
:1039F000B0FBF1F00090FCF773FCFFF769FBC948DE
:103A0000006841F27071B0FBF1F00090FCF768FCC7
:103A1000C54840790246052100902220FCF7C2FFEC
:103A2000042206212220FCF7BDFFBE4800684000AA
:103A300040F6B831B0FBF1F00090FCF751FCFFF715
:103A400047FBB848006841F27071B0FBF1F000909C
:103A5000FCF746FCB5480068072866D1B448006802
:103A6000162862D1B04840790246052100902220F4
:103A7000FCF798FF012206212220FCF793FFA948BA
:103A80000068400040F6B831B0FBF1F00090FCF760
:103A900027FCFFF71DFBA348006841F27071B0FBE3
:103AA000F1F00090FCF71CFC3E2205212220FCF7DF
:103AB00079FF022206212220FCF774FF9948006852
:103AC000400040F6B831B0FBF1F00090FCF708FC84
:103AD000FFF7FEFA9348006841F27071B0FBF1F015
:103AE0000090FCF7FDFB904880790246052100908C
:103AF0002220FCF757FF042206212220FCF752FF68
:103B000088480068400040F6B831B0FBF1F0009002
:103B1000FCF7E6FBFFF7DCFA8248006841F27071BF
:103B2000B0FBF1F00090FCF7DBFB80480068082850
:103B300069D17F480068072865D17B48C07B024671
:103B4000052100902220FCF72DFF012206212220D2
:103B5000FCF728FF73480068400040F6B831B0FB1E
:103B6000F1F00090FCF7BCFBFFF7B2FA6D4800687B
:103B700041F27071B0FBF1F00090FCF7B1FB6A48C4
:103B8000807A0246052100902220FCF70BFF0222DA
:103B900006212220FCF706FF62480068400040F63C
:103BA000B831B0FBF1F00090FCF79AFBFFF790FA08
:103BB0005C48006841F27071B0FBF1F00090FCF7D6
:103BC0008FFB594840780246052100902220FCF7DF
:103BD000E9FE042206212220FCF7E4FE5148006899
:103BE000400040F6B831B0FBF1F00090FCF778FBF4
:103BF000FFF76EFA4B48006841F27071B0FBF1F0CC
:103C00000090FCF76DFB49480068082869D14848D6
:103C10000068172865D14448C07B02460521009002
:103C20002220FCF7BFFE012206212220FCF7BAFE6B
:103C30003C480068400040F6B831B0FBF1F000901D
:103C4000FCF74EFBFFF744FA3648006841F270710A
:103C5000B0FBF1F00090FCF743FB3348807A02465A
:103C6000052100902220FCF79DFE02220621222041
:103C7000FCF798FE2B480068400040F6B831B0FBD6
:103C8000F1F00090FCF72CFBFFF722FA25480068C2
:103C900041F27071B0FBF1F00090FCF721FB22487B
:103CA00080780246052100902220FCF77BFE04224A
:103CB00006212220FCF776FE1A480068400040F6F4
:103CC000B831B0FBF1F00090FCF70AFBFFF700FA07
:103CD0001448006841F27071B0FBF1F00090FCF7FD
:103CE000FFFA12480068092873D1114800680728B4
:103CF0006FD10D48C07B0246052100902220FCF7C1
:103D000051FE012206212220FCF74CFE05480068E6
:103D1000400040F6B831B0FBF1F00090FCF7E0FA5B
:103D200008E000001400002018000020CC01002052
:103D3000C8010020FFF7CCF9FE48006841F270711D
:103D4000B0FBF1F00090FCF7CBFAFB48807A02461A
:103D5000052100902220FCF725FE022206212220C8
:103D6000FCF720FEF3480068400040F6B831B0FB95
:103D7000F1F00090FCF7B4FAFFF7AAF9ED480068FB
:103D800041F27071B0FBF1F00090FCF7A9FAEA483B
:103D9000C0780246052100902220FCF703FE042291
:103DA00006212220FCF7FEFDE2480068400040F6B4
:103DB000B831B0FBF1F00090FCF792FAFFF788F908
:103DC000DC48006841F27071B0FBF1F00090FCF744
:103DD00087FADA480068092869D1D94800681728A5
:103DE00065D1D548C07B0246052100902220FCF712
:103DF000D9FD012206212220FCF7D4FDCD48006820
:103E0000400040F6B831B0FBF1F00090FCF768FAE2
:103E1000FFF75EF9C748006841F27071B0FBF1F03E
:103E20000090FCF75DFAC448807A024605210090B4
:103E30002220FCF7B7FD022206212220FCF7B2FD6A
:103E4000BC480068400040F6B831B0FBF1F000908B
:103E5000FCF746FAFFF73CF9B648006841F270718A
:103E6000B0FBF1F00090FCF73BFAB3480079024652
:103E7000052100902220FCF795FD04220621222036
:103E8000FCF790FDAB480068400040F6B831B0FB4D
:103E9000F1F00090FCF724FAFFF71AF9A548006842
:103EA00041F27071B0FBF1F00090FCF719FAA348F1
:103EB00000680A2869D1A2480068082865D19E4890
:103EC000C07B0246052100902220FCF76BFD0122F9
:103ED00006212220FCF766FD96480068400040F667
:103EE000B831B0FBF1F00090FCF7FAF9FFF7F0F809
:103EF0009048006841F27071B0FBF1F00090FCF75F
:103F0000EFF98D48807A0246052100902220FCF7C7
:103F100049FD022206212220FCF744FD8548006865
:103F2000400040F6B831B0FBF1F00090FCF7D8F952
:103F3000FFF7CEF87F48006841F27071B0FBF1F0F6
:103F40000090FCF7CDF97C484079024605210090AD
:103F50002220FCF727FD042206212220FCF722FD67
:103F600074480068400040F6B831B0FBF1F00090B2
:103F7000FCF7B6F9FFF7ACF86E48006841F27071D3
:103F8000B0FBF1F00090FCF7ABF96C4800680A2830
:103F900069D16B480068172865D16748C07B024625
:103FA000052100902220FCF7FDFC012206212220A1
:103FB000FCF7F8FC5F480068400040F6B831B0FB01
:103FC000F1F00090FCF78CF9FFF782F8594800688F
:103FD00041F27071B0FBF1F00090FCF781F95648A6
:103FE000807A0246052100902220FCF7DBFC0222A9
:103FF00006212220FCF7D6FC4E480068400040F61F
:10400000B831B0FBF1F00090FCF76AF9FFF760F807
:104010004848006841F27071B0FBF1F00090FCF785
:104020005FF9454880790246052100902220FCF77F
:10403000B9FC042206212220FCF7B4FC3D480068AC
:10404000400040F6B831B0FBF1F00090FCF748F9C1
:10405000FFF73EF83748006841F27071B0FBF1F0AD
:104060000090FCF73DF9354800680B286DD13448C5
:104070000068072869D13E2205212220FCF792FC26
:10408000012206212220FCF78DFC2A48006840000E
:1040900040F6B831B0FBF1F00090FCF721F9FFF7E2
:1040A00017F82448006841F27071B0FBF1F00090FD
:1040B000FCF716F93E2205212220FCF773FC0222B0
:1040C00006212220FCF76EFC1A480068400040F6EA
:1040D000B831B0FBF1F00090FCF702F9FEF7F8FF01
:1040E0001448006841F27071B0FBF1F00090FCF7E9
:1040F000F7F8114840780246052100902220FCF78D
:1041000051FC042206212220FCF74CFC09480068DF
:10411000400040F6B831B0FBF1F00090FCF7E0F859
:10412000FEF7D6FF0348006841F27071B0FBF1F072
:10413000009008E01400002018000020CC010020AE
:10414000C801002001E0FCF7CBF8FE4800680B280E
:1041500063D1FD48006816285FD13E220521222048
:10416000FCF720FC012206212220FCF71BFCF7486B
:104170000068400040F6B831B0FBF1F00090FCF769
:10418000AFF8FEF7A5FFF148006841F27071B0FB8F
:10419000F1F00090FCF7A4F83E2205212220FCF764
:1041A00001FC022206212220FCF7FCFBE748006804
:1041B000400040F6B831B0FBF1F00090FCF790F809
:1041C000FEF786FFE148006841F27071B0FBF1F044
:1041D0000090FCF785F8DE488078024605210090C3
:1041E0002220FCF7DFFB042206212220FCF7DAFB69
:1041F000D6480068400040F6B831B0FBF1F00090BE
:10420000FCF76EF8FEF764FFD048006841F2707169
:10421000B0FBF1F00090FCF763F8CA4800680C2886
:1042200063D1C948006807285FD13E2205212220BA
:10423000FCF7B8FB012206212220FCF7B3FBC348A0
:104240000068400040F6B831B0FBF1F00090FCF798
:1042500047F8FEF73DFFBD48006841F27071B0FBC2
:10426000F1F00090FCF73CF83E2205212220FCF7FB
:1042700099FB022206212220FCF794FBB348006838
:10428000400040F6B831B0FBF1F00090FCF728F8A0
:10429000FEF71EFFAD48006841F27071B0FBF1F00F
:1042A0000090FCF71DF8AA48C0780246052100904E
:1042B0002220FCF777FB042206212220FCF772FB68
:1042C000A2480068400040F6B831B0FBF1F0009021
:1042D000FCF706F8FEF7FCFE9C48006841F270719E
:1042E000B0FBF1F00090FBF7FBFF964800680C284C
:1042F00063D19548006815285FD13E220521222010
:10430000FCF750FB012206212220FCF74BFB8F48D3
:104310000068400040F6B831B0FBF1F00090FBF7C8
:10432000DFFFFEF7D5FE8948006841F27071B0FBEF
:10433000F1F00090FBF7D4FF3E2205212220FCF78C
:1043400031FB022206212220FCF72CFB7F4800686B
:10435000400040F6B831B0FBF1F00090FBF7C0FF31
:10436000FEF7B6FE7948006841F27071B0FBF1F0DB
:104370000090FBF7B5FF76480079024605210090D2
:104380002220FCF70FFB042206212220FCF70AFB67
:104390006E480068400040F6B831B0FBF1F0009084
:1043A000FBF79EFFFEF794FE6848006841F27071CB
:1043B000B0FBF1F00090FBF793FF62480068012822
:1043C00063D16148006805285FD13E220521222083
:1043D000FCF7E8FA012206212220FCF7E3FA5B4809
:1043E0000068400040F6B831B0FBF1F00090FBF7F8
:1043F00077FFFEF76DFE5548006841F27071B0FB23
:10440000F1F00090FBF76CFF3E2205212220FCF723
:10441000C9FA022206212220FCF7C4FA4B480068A0
:10442000400040F6B831B0FBF1F00090FBF758FFC8
:10443000FEF74EFE4548006841F27071B0FBF1F0A6
:104440000090FBF74DFF424840790246052100905D
:104450002220FCF7A7FA042206212220FCF7A2FA68
:104460003A480068400040F6B831B0FBF1F00090E7
:10447000FBF736FFFEF72CFE3448006841F27071FE
:10448000B0FBF1F00090FBF72BFF2E4800680128ED
:104490006DD12D480068142869D13E2205212220C3
:1044A000FCF780FA012206212220FCF77BFA27483C
:1044B0000068400040F6B831B0FBF1F00090FBF727
:1044C0000FFFFEF705FE2148006841F27071B0FB56
:1044D000F1F00090FBF704FF3E2205212220FCF7BB
:1044E00061FA022206212220FCF75CFA17480068D4
:1044F000400040F6B831B0FBF1F00090FBF7F0FE61
:10450000FEF7E6FD1148006841F27071B0FBF1F072
:104510000090FBF7E5FE0E488079024605210090E9
:104520002220FCF73FFA042206212220FCF73AFA67
:1045300006480068400040F6B831B0FBF1F000904A
:1045400008E014E0CC010020C80100201400002085
:1045500018000020FBF7C4FEFEF7BAFD044800680F
:1045600041F27071B0FBF1F00090FBF7B9FE08BDAD
:104570001400002000B52DED048B83B041EC190B25
:1045800000F05CFF41EC180B18EE100A18EE901AC0
:104590008DED008B002818BF0120084320F000405B
:1045A000C0F17F6000F1E040C00F14D019EE101A86
:1045B00019EE900A8DED009B002918BF01210843D8
:1045C00020F00040C0F17F6000F1E040C00F04BF68
:1045D0000120FBF786FF51EC180B03B0BDEC048BF8
:1045E00000BD000010B51748006828B115480068E4
:1045F000401E1449086024E01348006840B1124886
:104600000068401E1049086063200E49086018E0E9
:104610000E48006858B10D480068401E0B490860FC
:104620003B200949086063200649086009E0084802
:10463000007830B1202211460648FCF770F9FEF7E9
:1046400011F910BD14020020100200200C020020FD
:104650003C000020001006407CB5002400207B496F
:10466000087001207A4908707A4800680A21B0FB76
:10467000F1F0C0B28DF8000076480068B0FBF1F2AE
:1046800001FB12008DF8010073480068B0FBF1F0E7
:10469000C0B28DF8030070480068B0FBF1F201FB76
:1046A00012008DF804006D480068B0FBF1F0C0B254
:1046B0008DF8060069480068B0FBF1F201FB1200BA
:1046C0008DF8070000BF1FE0022C01D0052C00D19F
:1046D00019E0E1B26846FBF74FFF6148006840000F
:1046E00040F6B831B0FBF1F52846FBF7F9FDFEF7CF
:1046F000EFFC5B48006841F27071B0FBF1F52846B1
:10470000FBF7EEFD00BF641C082CDDD35548007894
:10471000FF2871D100212220FCF704F951490870CB
:1047200008460078C04350490870084600781028B1
:104730007CD008DC01280DD002281BD0042829D009
:10474000082877D16CE0202834D0402843D0802836
:1047500070D152E03F48006828B13E480068401ED2
:104760003C49086002E03B203A49086000203F498C
:10477000087060E03848006828B137480068401E7B
:104780003549086002E03B20334908600020374982
:10479000087050E03148006828B130480068401E79
:1047A0002E49086002E063202C49086000202F4950
:1047B000087040E029480068632805D2274800684F
:1047C000401C2649086002E00020244908600020BF
:1047D000264908702FE0204800683B2805D21E4873
:1047E0000068401C1C49086002E000201A4908606B
:1047F00000201E4908701EE01EE0164800683B2895
:1048000005D214480068401C1249086002E00020EC
:10481000104908600020154908700CE006E009E026
:104820000120134908701149087004E000200F4965
:10483000087000E000BF07E000212220FCF772F8BA
:10484000FF2801D1074908707CBD0000320000201C
:10485000330000200C02002010020020140200206F
:104860001400002036000020350000203700002012
:104870003C00002010B52DED0C8B974800680028F7
:104880007ED09648007800287AD19349086094A099
:10489000FCF742FE98A0FCF73FFE9B48FCF73CFE6D
:1048A0009A48007806286CD2DFE800F06B032E8867
:1048B000B3DE97A0FCF730FE9348C07930389249B8
:1048C0008979303901EB810100EB4100964908609C
:1048D0008D48407A30388C49097A303901EB8101B2
:1048E00000EB4100914908608748C07A303886491A
:1048F000897A303901EB810100EB41008C49086075
:104900008CA0FCF709FEDEE090A0FCF705FE00207D
:1049100093490860052430E0C4F1080000F0FEFB74
:1049200041EC1D0BB0EE4D1AF0EE6D1A9FED8D0BA4
:10493000FCF746FEB0EE40BAF0EE60BA7249095D8F
:10494000A1F1300000F0D3FB41EC1C0B53EC1B2B0E
:1049500000F034FC41EC190B8148006800F0DEFBEC
:1049600041EC1A0B53EC192B00F080F941EC180BB9
:1049700000F090FB7A490860641C092CCCD301E05C
:10498000A6E09FE06048807A30385F49497A303944
:1049900001EB810100EB4100744908605A48007B3B
:1049A00030385949C97A303901EB810100EB4100B7
:1049B0006F4908606FA0FCF7AFFD84E074A0FCF7BE
:1049C000ABFD5148007A30384F49C979303901EB95
:1049D000810100EB4100744908604B48807A30380F
:1049E0004949497A303901EB810100EB41006F49B7
:1049F00008604548007B30384349C97A303901EBBB
:104A0000810100EB41006A4908606AA0FCF784FD5F
:104A100059E06FA0FCF780FD3B48007A30383A49F6
:104A2000C979303901EB810100EB41006E49086022
:104A30003548807A30383449497A303901EB810180
:104A400000EB4100694908602F48007B30382E494F
:104A5000C97A303901EB810100EB410064490860FB
:104A600064A0FCF759FD2EE069A0FCF755FD26482F
:104A7000C079303824498979303901EB810100EB64
:104A80004100694908602048407A30381E49097A57
:104A9000303901EB810100EB4100644908601A489C
:104AA000C07A30381849897A303901EB810100EB3E
:104AB00041005F49086001205E4908705EA0FCF774
:104AC0002BFD00E000BF00BF00201049087000BFB0
:104AD000BDEC0C8B10BD0000B40100203B00002099
:104AE00053544152542053455454494E472042593F
:104AF0002055415254200A0054484520494E5055F3
:104B0000542049533A200000B00000203A00002011
:104B10002053455454494E4720434C4F434B204E5D
:104B20004F57200A00000000C4010020C0010020EF
:104B3000BC010020434C4F434B2053455420434F6E
:104B40004D504C45544544200A0000002053455424
:104B500054494E472044415445204E4F57200A00A7
:104B6000D00100200000000000002440CC01002003
:104B7000C8010020444154452053455454494E47F0
:104B800020434F4D504C45544544200A000000003E
:104B90002053455454494E4720414C41524D2031F9
:104BA000204E4F57200A0000F4010020F801002099
:104BB000FC010020414C41524D20312053455454BA
:104BC000494E4720434F4D504C45544544200A0020
:104BD0002053455454494E4720414C41524D2032B8
:104BE000204E4F57200A000000020020040200203F
:104BF00008020020414C41524D203220534554546C
:104C0000494E4720434F4D504C45544544200A00DF
:104C10002053455454494E472054494D4552204E47
:104C20004F57200A000000000C0200201002002054
:104C3000140200203C00002054494D4552205345A9
:104C40005454494E4720434F4D504C455445442001
:104C50000A00000081F00041704780F0004070477A
:104C600021F00041704720F00040704710B591EAF4
:104C7000030F48BF83F0004300F1B484841A71EB42
:104C8000030C05D2121943EB0C03001B61EB0C0162
:104C9000DFF824E14FEA1154A4EB135C1EEA430F42
:104CA00018BF9EEA445F73D023EA0E03DCF1200EA6
:104CB00021EA045143F4801332D322FA0CFE10EBA4
:104CC0000E0023FA0CFE41EB0E01CCF1200E03FA8C
:104CD0000EFE10EB0E0051F10001B1F5801FCCF17A
:104CE000200E32D201EB045112FA0EF2BDE8104050
:104CF00058BF7047401C38BF5FEA420218BF704778
:104D0000002814BF20F0010041F100014FEA4103E7
:104D100013F5001F38BF7047A1F1C04100F046BB3A
:104D2000012A43EB0302ACF1200CDCF11F0E32BF71
:104D30004FF0000E23FA0CF310EB030041EB04518B
:104D4000B4EB115FD0D0A1EB045101F580114908FB
:104D50005FEA300001EB04510ED350F1000038BF80
:104D600012FA0EFE08D1BDE81040C9E7401C38BF5A
:104D70005FEA4202CAD1C3E7BDE810404FEA4103EF
:104D800013F5001F38BF7047A1F1C04100F00EBB02
:104D90009EEA445F08D011EA5E0FBDE8104004BFF0
:104DA00001F0004100207047BDE8104070B500F0F0
:104DB000AFFA00BF64FBBE3E0000E0FF02494FF0C7
:104DC000000000F0F6BC00BF0000F87F491058BF9B
:104DD000C1F140415B1058BFC3F140438B42EFF338
:104DE000008070472DE9C04130B4DFF8A0C23CEA32
:104DF000111418BF3CEA131400F0EC8081EA03059B
:104E00001CEA111444EAD57418BF1CEA131500F00B
:104E1000C780A4EB05044FF0004545EAC12145EAEF
:104E2000C32341EA505143EA525304F17F7499423B
:104E300004F500344FEAC0204FEAC22208BF904276
:104E400000F09C804FEA13650FF24016765D4FEA42
:104E5000134506FB05F7C7F1807706FB07F74FEA16
:104E6000D737A7FB03687642C8F58038A7FB06CE84
:104E700038BFA8F1010807FB08E64FF0000EA6FBBB
:104E8000028CE6FB03CEDCF1000CCEF1004E38BF05
:104E9000AEF1010EA6FB0C584FF000074FF00005D5
:104EA000E6FB0E87A1FB08C6A0FB07CE16EB0E069D
:104EB00045F10005E1FB076515F1E04E7EBFA4F565
:104EC00080345FEA46066D4116F1800745F1000522
:104ED0004FEA17274FEA066647EA0567A6F1DE465E
:104EE000B6F1805F4FEA15251FD9384624F0010C32
:104EF00005EBC471BCF1FE6F01EB0C1102D8F0BCE4
:104F0000BDE8008124425CBF01F5801E9EEAC47F9B
:104F100002D4F0BCBDE80081244238D4F0BCA1F139
:104F2000C041BDE8004100F041BA4FEAD22242EA56
:104F300043524FEAD323A7FB02864FEAD02040EA30
:104F4000415007FB03661EEA0E0F4FEAD12105FB15
:104F5000026658BFA6EB0056B6EB00564FEA520E5B
:104F60004EEAC37E18EB0E0E56EB530EBDD518EB72
:104F700002085E417F1C55F10005B6E74FF480152D
:104F80004FF000074FF000064FF00008ADE7F0BC0F
:104F90004FF0000001F1C04101F00041BDE8008187
:104FA00011EA0C1F0CEA131500D00CE013EA0C1FD9
:104FB00000F025804FF00000F0BC81EA030101F011
:104FC0000041BDE80081F0BCBDE8004181EA030179
:104FD00000F0ECB9F0BCBDE8004170B500F098F904
:104FE000097EFC3E00F007B881EA03014FF00000A3
:104FF00001F00041704781EA030100F0D7B9F0BC2D
:10500000BDE800414FF0000021497047FFFDFBF96A
:10501000F7F5F4F2F0EEEDEBE9E8E6E4E3E1E0DEEB
:10502000DDDBDAD8D7D5D4D3D1D0CFCDCCCBCAC85D
:10503000C7C6C5C4C2C1C0BFBEBDBCBBBAB9B8B784
:10504000B6B5B4B3B2B1B0AFAEADACABAAA9A8A877
:10505000A7A6A5A4A3A3A2A1A09F9F9E9D9C9C9B45
:105060009A999998979796959594939392919190F0
:105070008F8F8E8E8D8C8C8B8B8A89898888878781
:105080008685858484838382828181800000FF07F6
:105090000000F87F4FEA1153A3F58063D3F11E039C
:1050A000A8BFD3F1200C08DB4FF0004242EAC12236
:1050B00052EA505232FA03F0704709420BD4102BD7
:1050C000C4BF0020704703F5787CBCF1FF3F05D0DA
:1050D0004FF0FF3070474FF00000704770B500F0A0
:1050E00017F900BF4992248000207047F0E710F0C4
:1050F000004248BF4042B0FA80F310FA03F10AD0F0
:10510000C3F11D0303F580634FEA415002EB0352E4
:1051100002EBD12170474FF000007047B0FA80F3E6
:1051200010FA03F10AD0C3F11D0303F580634FEABF
:1051300041504FEA035202EBD12170474FF000007B
:105140007047000051EA030C17D41CF5801F58BFAC
:10515000BCF5801F00F10680994218BF704708BF58
:105160009042704707D711F5801F58BF13F5801F75
:1051700019D499427047894270471CF5801F08D5A1
:10518000BCF5801FF7D58B4218BF704708BF82421D
:1051900070474FF4001C1CEB410F38BF1CEB430F52
:1051A00001D28B42704770B500F0B2F892244900EA
:1051B0004FF000514FF08053FFF708BEDFF848C1B1
:1051C00070B51CEA111E1EBF1CEA13159EEA0C0FD7
:1051D00095EA0C0F00F06F8081EA030423EA4C1378
:1051E0004EEAD47E21EA4C1141F4801143F480133D
:1051F000AE44A1FB024CA0FB0365AEF17F7E3619E5
:1052000055EB0C05A1FB034C4CF10003A0FB021C69
:1052100016EB0C06654153F10003094218BF46F036
:10522000010613F4007F0BD14FEA03314FEA05303A
:10523000340341EA155140EA16506FF003020AE0C8
:105240004FEAC3214FEAC520F40241EA555140EA32
:1052500056506FF0020202EB2E4201EB025585EA36
:10526000CE710AD05FEA440C18BF24F0004450F11C
:10527000000041F1000120EAD47040F2FE7C62455A
:1052800000D270BDA84214BF4FF080444FF040449C
:10529000002E08BF0024BEF1806FA8BFA1F1C0415D
:1052A000BDE8704080F282804FF0000001F1C04103
:1052B00001F0004170479EEA0C0F0CEA131518BF6D
:1052C00095EA0C0F06D04FF0000081EA030E0EF0B5
:1052D000004170BD00F01CF88900013E00F007B8E5
:1052E00000F009B84FEA430C5FEA5C5C08D081EA41
:1052F000030100F05BB84FEA410C5FEA5C5CF6D159
:105300004FF00000014970470000FF070000F87FE0
:105310000EF1020E2EF0030E5EF8046B364205D439
:10532000012A43EB030515F5001F12D8012841EBB4
:10533000010C1CF5001F0CD80ED14FEAD17C15F5DD
:10534000001F0CEB4C0C0CF1020C08BF4CEBD37C97
:1053500004E04FF0080C01E04FEAD37C0CEB4C0565
:1053600026FA05F606F00706B6F1040C06D20EEB97
:10537000860CBDE870404CF0010C6047DFE80CF093
:10538000090B02024FF000414FF00000A1F500218F
:1053900070BD19461046012851EB010418BFD4F521
:1053A000001484BF002001F0004170BD0808A0F582
:1053B00000114FEA3101704753EA010C17D41CF574
:1053C000801F58BFBCF5801F00F106808B4218BFBC
:1053D000704708BF8242704707D713F5801F58BF38
:1053E00011F5801F19D48B4270479B4270471CF502
:1053F000801F08D5BCF5801FF7D5994218BF7047AC
:1054000008BF904270474FF4001C1CEB430F38BF9D
:105410001CEB410F01D2994270470FB40CBC03BC86
:10542000FFF7C1BE91EA030F10B581F000413FF5CF
:1054300025AC83F0004300F0D5B800002DE9F04121
:1054400001F5801CBCF5001FC0F2A9804FEA115C79
:1054500021EA0C510CF1FD0C41F480115FEA5C0C67
:105460000CF5C07C01D34000494130A4890241EAD7
:10547000905187028E0E0A0CA45D04FB04F602FB19
:1054800006F6C6F14046A4FB0662F60D46EA422641
:1054900006FB06F4A4FB01235242C3F1404338BF8C
:1054A0005B1EA6FB02420024E6FB0324D20B42EA69
:1054B0004446A6FB0623A1FB02E2A3FB07E4E3FBB1
:1054C00061426442C2F1404E38BFAEF1010EA6FB0C
:1054D00004234FF00002E6FB0E32A2FB0346340029
:1054E000E2FB6264A1FB06E6A4FB07E8E4FB61685B
:1054F0007642C8F1405838BFA8F10108A2FB06E483
:10550000A3FB08E5E2FB6854A1FB05E6A7FB04E862
:10551000E1FB648618F1200556F10006A809A8F100
:105520001B08B10908F03F08B8F10A0F40EA86608D
:105530001CD901EB0C51BDE8F08100BFFCF5EEE891
:10554000E2DDD8D3CFCBC7C3C0BDB9B6B4B1AEAC22
:10555000A9A7A5A3A19F9D9B9A9896959392908F9A
:105560008D8C8B898887868584838281A0FB0068E7
:1055700000FB01F208EB4208B8EB872807D5341886
:1055800058EB0104D5D5401C51F10001D1E7341A84
:1055900078EB0104CDD4401E71F10001C9E75FEA48
:1055A0004C0C5FEA9C5C0DD105D34FF0000001F07C
:1055B0000041BDE8F081BDE8F04170B5FFF7A8FEFD
:1055C0006DDBFFBEBDE8F0414FF0000000497047C1
:1055D0000000F87F10B591EA030F48BF83F0004345
:1055E0003FF54CAB841A71EB030C07D212198CF007
:1055F000004C43EB0C03001B61EB0C01DFF8A4E152
:105600004FEA1154A4EB135C1EEA430F18BF9EEA45
:10561000445F00F0B08023EA6E03524221EA045155
:10562000C3EB6E0338BF5B1EDCF1200E25D322FADC
:105630000CFE10EB0E0043FA0CFE41EB0E01CCF118
:10564000200E03FA0EFE10EB0E0051F10001CCF11A
:10565000200E29D412FA0EF201EB0451BDE81040DD
:1056600058BF7047401C1CBFB2F1004F7047002864
:105670000CBF491C20F00100704712EB020E43EBF7
:10568000030218BF4FF0010E4EEA4202ACF1200CAB
:10569000DCF11E0E54D943FA0CFE10EB0E0051F152
:1056A000FF31CCF11E0ED5D50EF1010E12FA0EFE11
:1056B000404141EB010101EB445C5FEA5C5C10D9C5
:1056C00010EBDE7001EB045138BFBEF1004FBDE8B6
:1056D000104018BF704700280CBF491C20F0010083
:1056E000704730D24FEAD42C11F5001124F4006435
:1056F0001BD0B1FA81F20B3AA41AA41ED2F12003F6
:10570000914030FA03F31943904001EBCC71002C27
:1057100001EB0451BDE81040A8BF704701F1C04142
:105720004FF0000001F000417047B0FA80F310FA2A
:1057300003F100D110BDE41A173C4805C90AE4E79B
:1057400001EB045110BD491001EB0451BDE81040BC
:105750004FEA300002E04FF0000170474A0008BFF6
:105760000042F8D0B2F5001F28BF704701F0004199
:105770004FF0000070479EEA445F07D011EA5E0FC9
:10578000BDE8104004BF002100207047BDE8104074
:1057900070B5FFF7BDFD00BF40DFF63E83F000416E
:1057A000104670470000E0FF4FF04070E1EE100A35
:1057B00070470CF00F03092B08BF082000F0598038
:1057C0000A2B0BD0082B18BF704708BF1CF0400FE6
:1057D0000AD04FF000004FF0000170471CF0400F5E
:1057E00018BF4FF0004070471CF0100F08D020F099
:1057F000704300F07F4242EAD3014FEA43707047A2
:1058000000F0604021F07F4242EA000201F07F4058
:1058100040EA727070474FF0FF0C4CF4E06C1CEAE9
:1058200011531CBF9CEA030C9445C2BFDA4201EB42
:1058300002517047002B0DD0BCF1000F0FD0002A91
:1058400001F00041A4BF41F0E04141F07F614FF021
:105850000000704701F000414FF00000704750EA2F
:1058600001334FF09B0C18BF4CF0806C7FF4A6AA5C
:1058700070471CF4801F11D01CF4E02F03D06FEA96
:10588000CC31490070474FF04050EFF3008222F0D6
:10589000704242EA000282F3008870474FF0000035
:1058A00070470000004000401000000000800540EC
:1058B0001000000000500040110000000090054062
:1058C00011000000006000401200000000A0054030
:1058D00012000000007000401300000000B00540FE
:1058E00013000000004002401400000000C005400A
:1058F00014000000005002402E00000000D00540BF
:105900002E000000006002402F00000000E0054073
:105910002F000000007002403000000000F0054041
:105920003000000000D003404600000000000640A8
:10593000460000000010064047000000002006401E
:1059400048000000003006407F0000000040064094
:105950008000000000500640840000000060064007
:105960008C00000000400040100000000080054056
:1059700010000000005000401100000000900540A1
:1059800011000000006000401200000000A005406F
:1059900012000000007000401300000000B005403D
:1059A00013000000004002401400000000C0054049
:1059B00014000000005002402E00000000D00540FE
:1059C0002E000000006002402F00000000E00540B3
:1059D0002F000000007002403000000000F0054081
:1059E0003000000000D003404300000000000640EB
:1059F0004300000000100640440000000020064064
:105A000045000000003006405800000000400640FD
:105A100059000000005006405C0000000060064095
:105A200064000000007006406C000000008006402A
:105A30006D000000009006407F0000000040004024
:105A4000008005400050004000900540006000408C
:105A500000A005400070004000B00540004002403A
:105A600000C005400050024000D0054000600240E8
:105A700000E005400070024000F0054000D0034007
:105A800000000640001006400010064000200640BE
:105A9000002006400030064000300640004006402E
:105AA000004006400050064000500640006006409E
:105AB000006006400070064000700640008006400E
:105AC000008006400090064000900640000700005D
:105AD00000060000000500000004000000030000B4
